{
    "contractName": "verifier",
    "abi": [
        {
            "inputs": [
                {
                    "internalType": "address",
                    "name": "sbt",
                    "type": "address"
                },
                {
                    "internalType": "address",
                    "name": "checkRingSig",
                    "type": "address"
                }
            ],
            "stateMutability": "nonpayable",
            "type": "constructor"
        },
        {
            "inputs": [
                {
                    "internalType": "uint256[]",
                    "name": "addresses",
                    "type": "uint256[]"
                },
                {
                    "internalType": "uint256[]",
                    "name": "tees",
                    "type": "uint256[]"
                },
                {
                    "internalType": "uint256",
                    "name": "seed",
                    "type": "uint256"
                },
                {
                    "internalType": "uint256",
                    "name": "value",
                    "type": "uint256"
                },
                {
                    "internalType": "address",
                    "name": "publicAddress",
                    "type": "address"
                },
                {
                    "internalType": "address",
                    "name": "token",
                    "type": "address"
                },
                {
                    "internalType": "string",
                    "name": "addressesURI",
                    "type": "string"
                },
                {
                    "internalType": "string",
                    "name": "verifierData",
                    "type": "string"
                }
            ],
            "name": "verify",
            "outputs": [],
            "stateMutability": "nonpayable",
            "type": "function"
        },
        {
            "inputs": [
                {
                    "internalType": "uint256[]",
                    "name": "addresses",
                    "type": "uint256[]"
                }
            ],
            "name": "buildRoot",
            "outputs": [
                {
                    "internalType": "bytes32",
                    "name": "",
                    "type": "bytes32"
                }
            ],
            "stateMutability": "pure",
            "type": "function",
            "constant": true
        },
        {
            "inputs": [
                {
                    "internalType": "bytes32",
                    "name": "root",
                    "type": "bytes32"
                },
                {
                    "internalType": "uint256[]",
                    "name": "addresses",
                    "type": "uint256[]"
                }
            ],
            "name": "verifyRoot",
            "outputs": [
                {
                    "internalType": "bool",
                    "name": "",
                    "type": "bool"
                }
            ],
            "stateMutability": "pure",
            "type": "function",
            "constant": true
        },
        {
            "inputs": [
                {
                    "internalType": "uint256[2]",
                    "name": "points",
                    "type": "uint256[2]"
                }
            ],
            "name": "pointsToAddress",
            "outputs": [
                {
                    "internalType": "address",
                    "name": "",
                    "type": "address"
                }
            ],
            "stateMutability": "pure",
            "type": "function",
            "constant": true
        }
    ],
    "bytecode": "0x60806040523480156200001157600080fd5b506040516200184a3803806200184a83398181016040528101906200003791906200012a565b816000806101000a81548173ffffffffffffffffffffffffffffffffffffffff021916908373ffffffffffffffffffffffffffffffffffffffff16021790555080600160006101000a81548173ffffffffffffffffffffffffffffffffffffffff021916908373ffffffffffffffffffffffffffffffffffffffff160217905550505062000171565b600080fd5b600073ffffffffffffffffffffffffffffffffffffffff82169050919050565b6000620000f282620000c5565b9050919050565b6200010481620000e5565b81146200011057600080fd5b50565b6000815190506200012481620000f9565b92915050565b60008060408385031215620001445762000143620000c0565b5b6000620001548582860162000113565b9250506020620001678582860162000113565b9150509250929050565b6116c980620001816000396000f3fe608060405234801561001057600080fd5b506004361061004c5760003560e01c80635588eb4914610051578063a2f58ef814610081578063d414d2211461009d578063ea043b0f146100cd575b600080fd5b61006b60048036038101906100669190610b62565b6100fd565b6040516100789190610bc4565b60405180910390f35b61009b60048036038101906100969190610cf2565b6101dd565b005b6100b760048036038101906100b29190610e44565b6106aa565b6040516100c49190610ebb565b60405180910390f35b6100e760048036038101906100e29190610f87565b6106bf565b6040516100f49190610fc3565b60405180910390f35b600080825167ffffffffffffffff81111561011b5761011a6109e9565b5b6040519080825280602002602001820160405280156101495781602001602082028036833780820191505090505b50905060005b83518110156101cb5783818151811061016b5761016a610fde565b5b6020026020010151604051602001610183919061102e565b604051602081830303815290604052805190602001208282815181106101ac576101ab610fde565b5b60200260200101818152505080806101c390611078565b91505061014f565b506101d581610747565b915050919050565b6000600289516101ed91906110ef565b1480156102075750600288516102039190611120565b8751145b610246576040517f08c379a000000000000000000000000000000000000000000000000000000000815260040161023d906111ae565b60405180910390fd5b8373ffffffffffffffffffffffffffffffffffffffff163373ffffffffffffffffffffffffffffffffffffffff16146102b4576040517f08c379a00000000000000000000000000000000000000000000000000000000081526004016102ab9061121a565b60405180910390fd5b60003373ffffffffffffffffffffffffffffffffffffffff169050600160009054906101000a900473ffffffffffffffffffffffffffffffffffffffff1673ffffffffffffffffffffffffffffffffffffffff16633b40da018a8a8a856040518563ffffffff1660e01b81526004016103309493929190611307565b602060405180830381865afa15801561034d573d6000803e3d6000fd5b505050506040513d601f19601f820116820180604052508101906103719190611386565b6103b0576040517f08c379a00000000000000000000000000000000000000000000000000000000081526004016103a7906113ff565b60405180910390fd5b600073ffffffffffffffffffffffffffffffffffffffff168473ffffffffffffffffffffffffffffffffffffffff16036104c05760005b89518110156104ba578661044e60405180604001604052808d858151811061041257610411610fde565b5b602002602001015181526020018d60018661042d919061141f565b8151811061043e5761043d610fde565b5b60200260200101518152506106bf565b73ffffffffffffffffffffffffffffffffffffffff163110156104a6576040517f08c379a000000000000000000000000000000000000000000000000000000000815260040161049d906114c5565b60405180910390fd5b6002816104b3919061141f565b90506103e7565b506105fa565b60005b89518110156105f857868573ffffffffffffffffffffffffffffffffffffffff166370a0823161054660405180604001604052808f878151811061050a57610509610fde565b5b602002602001015181526020018f600188610525919061141f565b8151811061053657610535610fde565b5b60200260200101518152506106bf565b6040518263ffffffff1660e01b81526004016105629190610fc3565b602060405180830381865afa15801561057f573d6000803e3d6000fd5b505050506040513d601f19601f820116820180604052508101906105a391906114fa565b10156105e4576040517f08c379a00000000000000000000000000000000000000000000000000000000081526004016105db906114c5565b60405180910390fd5b6002816105f1919061141f565b90506104c3565b505b60006106058a6100fd565b905060008054906101000a900473ffffffffffffffffffffffffffffffffffffffff1673ffffffffffffffffffffffffffffffffffffffff16636ddc64bc33878a8886888a6040518863ffffffff1660e01b815260040161066c9796959493929190611595565b600060405180830381600087803b15801561068657600080fd5b505af115801561069a573d6000803e3d6000fd5b5050505050505050505050505050565b6000826106b6836100fd565b14905092915050565b600080826000600281106106d6576106d5610fde565b5b602002015160001b90506000836001600281106106f6576106f5610fde565b5b602002015160001b905060008282604051602001610715929190611633565b604051602081830303815290604052905060008180519060200120905060008160001c90508095505050505050919050565b60008082510361075c576000801b90506109ba565b6001825103610788578160008151811061077957610778610fde565b5b602002602001015190506109ba565b60016002835161079891906110ef565b0361089e576000600183516107ad919061141f565b67ffffffffffffffff8111156107c6576107c56109e9565b5b6040519080825280602002602001820160405280156107f45781602001602082028036833780820191505090505b50905060005b83518110156108505783818151811061081657610815610fde565b5b602002602001015182828151811061083157610830610fde565b5b602002602001018181525050808061084890611078565b9150506107fa565b508260018451610860919061165f565b8151811061087157610870610fde565b5b60200260200101518184518151811061088d5761088c610fde565b5b602002602001018181525050809250505b6000600283516108ae9190611120565b67ffffffffffffffff8111156108c7576108c66109e9565b5b6040519080825280602002602001820160405280156108f55781602001602082028036833780820191505090505b50905060005b83518110156109ac5783818151811061091757610916610fde565b5b60200260200101518460018361092d919061141f565b8151811061093e5761093d610fde565b5b6020026020010151604051602001610957929190611633565b604051602081830303815290604052805190602001208260028361097b9190611120565b8151811061098c5761098b610fde565b5b6020026020010181815250506002816109a5919061141f565b90506108fb565b506109b681610747565b9150505b919050565b6000604051905090565b600080fd5b600080fd5b600080fd5b6000601f19601f8301169050919050565b7f4e487b7100000000000000000000000000000000000000000000000000000000600052604160045260246000fd5b610a21826109d8565b810181811067ffffffffffffffff82111715610a4057610a3f6109e9565b5b80604052505050565b6000610a536109bf565b9050610a5f8282610a18565b919050565b600067ffffffffffffffff821115610a7f57610a7e6109e9565b5b602082029050602081019050919050565b600080fd5b6000819050919050565b610aa881610a95565b8114610ab357600080fd5b50565b600081359050610ac581610a9f565b92915050565b6000610ade610ad984610a64565b610a49565b90508083825260208201905060208402830185811115610b0157610b00610a90565b5b835b81811015610b2a5780610b168882610ab6565b845260208401935050602081019050610b03565b5050509392505050565b600082601f830112610b4957610b486109d3565b5b8135610b59848260208601610acb565b91505092915050565b600060208284031215610b7857610b776109c9565b5b600082013567ffffffffffffffff811115610b9657610b956109ce565b5b610ba284828501610b34565b91505092915050565b6000819050919050565b610bbe81610bab565b82525050565b6000602082019050610bd96000830184610bb5565b92915050565b600073ffffffffffffffffffffffffffffffffffffffff82169050919050565b6000610c0a82610bdf565b9050919050565b610c1a81610bff565b8114610c2557600080fd5b50565b600081359050610c3781610c11565b92915050565b600080fd5b600067ffffffffffffffff821115610c5d57610c5c6109e9565b5b610c66826109d8565b9050602081019050919050565b82818337600083830152505050565b6000610c95610c9084610c42565b610a49565b905082815260208101848484011115610cb157610cb0610c3d565b5b610cbc848285610c73565b509392505050565b600082601f830112610cd957610cd86109d3565b5b8135610ce9848260208601610c82565b91505092915050565b600080600080600080600080610100898b031215610d1357610d126109c9565b5b600089013567ffffffffffffffff811115610d3157610d306109ce565b5b610d3d8b828c01610b34565b985050602089013567ffffffffffffffff811115610d5e57610d5d6109ce565b5b610d6a8b828c01610b34565b9750506040610d7b8b828c01610ab6565b9650506060610d8c8b828c01610ab6565b9550506080610d9d8b828c01610c28565b94505060a0610dae8b828c01610c28565b93505060c089013567ffffffffffffffff811115610dcf57610dce6109ce565b5b610ddb8b828c01610cc4565b92505060e089013567ffffffffffffffff811115610dfc57610dfb6109ce565b5b610e088b828c01610cc4565b9150509295985092959890939650565b610e2181610bab565b8114610e2c57600080fd5b50565b600081359050610e3e81610e18565b92915050565b60008060408385031215610e5b57610e5a6109c9565b5b6000610e6985828601610e2f565b925050602083013567ffffffffffffffff811115610e8a57610e896109ce565b5b610e9685828601610b34565b9150509250929050565b60008115159050919050565b610eb581610ea0565b82525050565b6000602082019050610ed06000830184610eac565b92915050565b600067ffffffffffffffff821115610ef157610ef06109e9565b5b602082029050919050565b6000610f0f610f0a84610ed6565b610a49565b90508060208402830185811115610f2957610f28610a90565b5b835b81811015610f525780610f3e8882610ab6565b845260208401935050602081019050610f2b565b5050509392505050565b600082601f830112610f7157610f706109d3565b5b6002610f7e848285610efc565b91505092915050565b600060408284031215610f9d57610f9c6109c9565b5b6000610fab84828501610f5c565b91505092915050565b610fbd81610bff565b82525050565b6000602082019050610fd86000830184610fb4565b92915050565b7f4e487b7100000000000000000000000000000000000000000000000000000000600052603260045260246000fd5b6000819050919050565b61102861102382610a95565b61100d565b82525050565b600061103a8284611017565b60208201915081905092915050565b7f4e487b7100000000000000000000000000000000000000000000000000000000600052601160045260246000fd5b600061108382610a95565b91507fffffffffffffffffffffffffffffffffffffffffffffffffffffffffffffffff82036110b5576110b4611049565b5b600182019050919050565b7f4e487b7100000000000000000000000000000000000000000000000000000000600052601260045260246000fd5b60006110fa82610a95565b915061110583610a95565b925082611115576111146110c0565b5b828206905092915050565b600061112b82610a95565b915061113683610a95565b925082611146576111456110c0565b5b828204905092915050565b600082825260208201905092915050565b7f496e76616c696420417267756d656e7473000000000000000000000000000000600082015250565b6000611198601183611151565b91506111a382611162565b602082019050919050565b600060208201905081810360008301526111c78161118b565b9050919050565b7f496e76616c6964206d6573736167650000000000000000000000000000000000600082015250565b6000611204600f83611151565b915061120f826111ce565b602082019050919050565b60006020820190508181036000830152611233816111f7565b9050919050565b600081519050919050565b600082825260208201905092915050565b6000819050602082019050919050565b61126f81610a95565b82525050565b60006112818383611266565b60208301905092915050565b6000602082019050919050565b60006112a58261123a565b6112af8185611245565b93506112ba83611256565b8060005b838110156112eb5781516112d28882611275565b97506112dd8361128d565b9250506001810190506112be565b5085935050505092915050565b61130181610a95565b82525050565b60006080820190508181036000830152611321818761129a565b90508181036020830152611335818661129a565b905061134460408301856112f8565b61135160608301846112f8565b95945050505050565b61136381610ea0565b811461136e57600080fd5b50565b6000815190506113808161135a565b92915050565b60006020828403121561139c5761139b6109c9565b5b60006113aa84828501611371565b91505092915050565b7f496e76616c69642072696e67207369676e617475726500000000000000000000600082015250565b60006113e9601683611151565b91506113f4826113b3565b602082019050919050565b60006020820190508181036000830152611418816113dc565b9050919050565b600061142a82610a95565b915061143583610a95565b925082820190508082111561144d5761144c611049565b5b92915050565b7f496e73756666696369656e742062616c616e636520696e206174206c6561737460008201527f206f6e6520616464726573730000000000000000000000000000000000000000602082015250565b60006114af602c83611151565b91506114ba82611453565b604082019050919050565b600060208201905081810360008301526114de816114a2565b9050919050565b6000815190506114f481610a9f565b92915050565b6000602082840312156115105761150f6109c9565b5b600061151e848285016114e5565b91505092915050565b600081519050919050565b60005b83811015611550578082015181840152602081019050611535565b60008484015250505050565b600061156782611527565b6115718185611151565b9350611581818560208601611532565b61158a816109d8565b840191505092915050565b600060e0820190506115aa600083018a610fb4565b6115b76020830189610fb4565b6115c460408301886112f8565b81810360608301526115d6818761155c565b90506115e56080830186610bb5565b6115f260a08301856112f8565b81810360c0830152611604818461155c565b905098975050505050505050565b6000819050919050565b61162d61162882610bab565b611612565b82525050565b600061163f828561161c565b60208201915061164f828461161c565b6020820191508190509392505050565b600061166a82610a95565b915061167583610a95565b925082820390508181111561168d5761168c611049565b5b9291505056fea26469706673582212201af474575a7cb0aa053e6f69750db2af5f93965f9ad098c09e8237b1c16050cf64736f6c63430008110033",
    "immutableReferences": {},
    "source": "// license: UNLICENSED\r\n\r\npragma solidity ^0.8.17;\r\n\r\nimport \"./IERC20.sol\";\r\nimport \"./ISBT.sol\";\r\nimport \"./hackyAOS/IhackyAOS.sol\";\r\n\r\n\r\n\r\ncontract verifier {\r\n\r\n    ISBT _sbt;\r\n    IHackyAOSRing _checkRingSig;\r\n\r\n    constructor(address sbt, address checkRingSig) {\r\n        _sbt = ISBT(sbt);\r\n        _checkRingSig = IHackyAOSRing(checkRingSig);\r\n    }\r\n\r\n\r\n    /**\r\n    * @notice verify a ring signature, check balances of the provided value and mint an sbt if it is valid\r\n    * @param addresses the addresses of the ring (length must be even) (addresses = [key1-x, key1-y, key2-x, key2-y, ..., keyN-x, keyN-y])\r\n    * @param tees the tees of the ring (length must be addresses.length/2) (tees = [tee1, tee2, ..., teeN])\r\n    * @param seed the seed of the ring\r\n    * @param value the value to check -> balance of each address must be >= value\r\n    * @param publicAddress the address that has been signed by the ring\r\n    * @param token the token we check the balance of. Null address if we check the balance of the native token\r\n    * @param addressesURI the URI of the addresses on IPFS\r\n    * @param verifierData is a string which could be used id the verifier wants to be sure that the sbt has been minted for him (example : his address or somethings he asked the prover to write)\r\n    */\r\n    function verify(uint256[] memory addresses, uint256[] memory tees, uint256 seed, uint256 value, address publicAddress, address token, string memory addressesURI, string memory verifierData) public {\r\n        require(addresses.length % 2 == 0 && tees.length == addresses.length / 2, \"Invalid Arguments\");\r\n        // verify if the message is valid -> int(eth address of the msg.sender) == message\r\n        require(msg.sender == publicAddress, \"Invalid message\");\r\n        uint256 message = uint256(uint160(msg.sender));\r\n        // verify the ring signature\r\n        require(_checkRingSig.Verify(addresses, tees, seed, message), \"Invalid ring signature\"); // c'est quoi tees et seed ?\r\n        \r\n        if(token == address(0)){\r\n            for (uint i = 0; i < addresses.length; i+=2) {\r\n                require(pointsToAddress([addresses[i],addresses[i+1]]).balance >= value, \"Insufficient balance in at least one address\");\r\n            }\r\n        }\r\n        else{\r\n            for (uint i = 0; i < addresses.length; i+=2) {\r\n                require(IERC20(token).balanceOf(pointsToAddress([addresses[i],addresses[i+1]])) >= value, \"Insufficient balance in at least one address\");\r\n            }\r\n        }\r\n\r\n        bytes32 root = buildRoot(addresses); // build merkle root to save in sbt\r\n\r\n        // mint sbt\r\n        _sbt.mint(msg.sender, token, value, addressesURI, root, message, verifierData);        \r\n    }\r\n\r\n\r\n\r\n    // merkle tree functions\r\n\r\n    /**\r\n    * @notice build root from a list of addresses\r\n    * @param addresses the addresses to build the merkle tree from\r\n    */\r\n    function buildRoot(uint256[] memory addresses) public pure returns (bytes32) {\r\n        bytes32[] memory leaves = new bytes32[](addresses.length);\r\n        for (uint i = 0; i < addresses.length; i++) {\r\n            leaves[i] = keccak256(abi.encodePacked(addresses[i]));\r\n        }\r\n        return buildRootFromLeaves(leaves);\r\n    }\r\n\r\n    /**\r\n    * @notice build root from a list of leaves\r\n    * @param leaves the leaves to build the merkle tree from\r\n    */\r\n    function buildRootFromLeaves(bytes32[] memory leaves) private pure returns (bytes32) {\r\n        if (leaves.length == 0) {\r\n            return 0x0;\r\n        }\r\n        if (leaves.length == 1) {\r\n            return leaves[0];\r\n        }\r\n        if (leaves.length % 2 == 1) {\r\n            bytes32[] memory tmp = new bytes32[](leaves.length + 1);\r\n            for (uint i = 0; i < leaves.length; i++) {\r\n                tmp[i] = leaves[i];\r\n            }\r\n            tmp[leaves.length] = leaves[leaves.length - 1];\r\n            leaves = tmp;\r\n        }\r\n        bytes32[] memory parents = new bytes32[](leaves.length / 2);\r\n        for (uint i = 0; i < leaves.length; i += 2) {\r\n            parents[i / 2] = keccak256(abi.encodePacked(leaves[i], leaves[i + 1]));\r\n        }\r\n        return buildRootFromLeaves(parents);\r\n    }\r\n\r\n    /**\r\n    * @notice check if a merkle root is valid\r\n    * @param root the root to check\r\n    * @param addresses the addresses to check the root against\r\n    */\r\n    function verifyRoot(bytes32 root, uint256[] memory addresses) public pure returns (bool) {\r\n        return buildRoot(addresses) == root;\r\n    }\r\n\r\n\r\n    /**\r\n    * @notice convert a point from SECP256k1 to an ethereum address\r\n    * @param points the point to convert -> [x,y]\r\n    */\r\n    function pointsToAddress(uint256[2] memory points) public pure returns (address) {\r\n        // convert uint256[2] to hex string\r\n        bytes32 x = bytes32(points[0]);\r\n        bytes32 y = bytes32(points[1]);\r\n        bytes memory public_key = abi.encodePacked(x, y);\r\n        bytes32 hash = keccak256(public_key);\r\n        address ethereum_address = address(uint160(uint256(hash)));\r\n\r\n        return ethereum_address;\r\n    }\r\n}",
    "sourcePath": "C:\\Users\\hervi\\Documents\\Blockchain Projects\\ETHDenver2023\\Prooof-of-ownership-verification-----ring-signature-verification\\truffle\\contracts\\verifier.sol",
    "compiler": {
        "name": "solc",
        "version": "0.8.17+commit.8df45f5f.Emscripten.clang"
    },
    "schemaVersion": "3.4.12",
    "updatedAt": "2023-03-05T03:24:13.610Z",
    "networkType": "ethereum",
    "devdoc": {
        "kind": "dev",
        "methods": {
            "buildRoot(uint256[])": {
                "params": {
                    "addresses": "the addresses to build the merkle tree from"
                }
            },
            "pointsToAddress(uint256[2])": {
                "params": {
                    "points": "the point to convert -> [x,y]"
                }
            },
            "verify(uint256[],uint256[],uint256,uint256,address,address,string,string)": {
                "params": {
                    "addresses": "the addresses of the ring (length must be even) (addresses = [key1-x, key1-y, key2-x, key2-y, ..., keyN-x, keyN-y])",
                    "addressesURI": "the URI of the addresses on IPFS",
                    "publicAddress": "the address that has been signed by the ring",
                    "seed": "the seed of the ring",
                    "tees": "the tees of the ring (length must be addresses.length/2) (tees = [tee1, tee2, ..., teeN])",
                    "token": "the token we check the balance of. Null address if we check the balance of the native token",
                    "value": "the value to check -> balance of each address must be >= value",
                    "verifierData": "is a string which could be used id the verifier wants to be sure that the sbt has been minted for him (example : his address or somethings he asked the prover to write)"
                }
            },
            "verifyRoot(bytes32,uint256[])": {
                "params": {
                    "addresses": "the addresses to check the root against",
                    "root": "the root to check"
                }
            }
        },
        "version": 1
    },
    "userdoc": {
        "kind": "user",
        "methods": {
            "buildRoot(uint256[])": {
                "notice": "build root from a list of addresses"
            },
            "pointsToAddress(uint256[2])": {
                "notice": "convert a point from SECP256k1 to an ethereum address"
            },
            "verify(uint256[],uint256[],uint256,uint256,address,address,string,string)": {
                "notice": "verify a ring signature, check balances of the provided value and mint an sbt if it is valid"
            },
            "verifyRoot(bytes32,uint256[])": {
                "notice": "check if a merkle root is valid"
            }
        },
        "version": 1
    }
}